:020000040800F2
:100000007806002089010008C10B0008B90B000820
:10001000BD0B000891020008D50B0008000000008D
:10002000000000000000000000000000C90B0008F4
:100030009502000800000000C50B0008CD0B000869
:10004000A3010008A3010008A3010008A301000800
:10005000A3010008A3010008A3010008A3010008F0
:10006000A3010008A3010008A3010008A3010008E0
:10007000A3010008A3010008A3010008A3010008D0
:10008000A3010008A3010008A3010008A3010008C0
:10009000A3010008A3010008A3010008A3010008B0
:1000A000A3010008A3010008A3010008A3010008A0
:1000B000A3010008A301000800000000A30100083C
:1000C000A30100080000000000000000A3010008D8
:1000D00000000000A3010008A301000800000000C8
:1000E000A3010008A3010008A301000800F002F822
:1000F00000F03AF80AA090E8000C82448344AAF188
:100100000107DA4501D100F02FF8AFF2090EBAE885
:100110000F0013F0010F18BFFB1A43F0010318473B
:100120007C0E00009C0E0000103A24BF78C878C1F5
:10013000FAD8520724BF30C830C144BF04680C60ED
:10014000704700000023002400250026103A28BF35
:1001500078C1FBD8520728BF30C148BF0B60704739
:100160001FB51FBD10B510BD00F058F81146FFF7C0
:10017000F7FF00F031FD00F076F803B4FFF7F2FF6F
:1001800003BC00F07DF8000009488047094800479B
:10019000FEE7FEE7FEE7FEE7FEE7FEE7FEE7FEE737
:1001A000FEE7FEE704480549054A064B7047000094
:1001B000D10B0008ED000008780000207806002030
:1001C00078020020780200204FF0000200B51346AC
:1001D00094469646203922BFA0E80C50A0E80C5067
:1001E000B1F12001BFF4F7AF090728BFA0E80C5018
:1001F00048BF0CC05DF804EB890028BF40F8042B11
:1002000008BF704748BF20F8022B11F0804F18BF7D
:1002100000F8012B7047704770477047754600F033
:100220002BF8AE4605006946534620F00700854688
:1002300018B020B5FFF7B6FFBDE820404FF000062C
:100240004FF000074FF000084FF0000BAC46ACE851
:10025000C009ACE8C009ACE8C009ACE8C00921F0AD
:1002600007018D46704710B50446AFF30080204665
:10027000BDE81040FFF781BF004870471000002024
:1002800001491820ABBEFEE72600020070470000BF
:10029000FEE7000070470000B0B5044600F01AF910
:1002A000054640F20000C2F200000078611C18BF51
:1002B000044400BF00F00EF9401BA042FAD3B0BDC9
:1002C0002DE9F04F82B00E68002E00F0F98040F268
:1002D0000C4C41F200024FF6FF7EC4F2010CC4F256
:1002E0000102032700240123C1F2100E4FF0000B7E
:1002F0004FF00009904208BF022700974CE000BF72
:1003000040F60042C4F20102009F904208BF01275C
:1003100004F00C030F229A402AEA020207FA03F3C0
:100320004FEA9B051A4346F82520D1F804A040F275
:100330000045C4F201055FEACA322A6854BF22EAC6
:10034000080242EA08022A606A685FEA8A3354BFF8
:1003500022EA080242EA08026A605FEACA23AA683F
:1003600054BF22EA080242EA08025FEA8A23AA602E
:10037000DCF800204FF0010354BF22EA080242EAF1
:100380000802CCF800200E680BF1010B36FA0BF2D4
:1003900004F1040400F0948003FA0BF816EA080F45
:1003A000F1D04E68764511DC122E55D8DFE806F004
:1003B000340A444854545454545454545454545483
:1003C000544C5000D1F80C9046E000BF4FF6FF723D
:1003D000C1F2210296420FDC0022C1F211029642C4
:1003E0001AD00022C1F21202964215D00022C1F2A8
:1003F0002102964210D02FE00022C1F22202964242
:100400000AD00022C1F23102964205D00022C1F288
:100410003202964220D100BF8A684AB1012A14BF35
:10042000C0F81480C0F810804FF0080914E000BF35
:100430004FF0040910E000BFCA6802F108090BE0A0
:100440004FF0000908E000BFCA6802F1040903E0A8
:10045000CA6802F10C0900BF22460646BBF1080F2C
:1004600024BF203A043637680F25954027EA050552
:1004700009FA02F22A433260CA79D2067FF583AFC5
:1004800041F21803C4F202031A6842F001021A6032
:100490001A6802F001020192019A40F20042C4F28D
:1004A0000102A2F57E762BF0030256F802A040F678
:1004B0000002C4F2010290427FF422AF002727E736
:1004C00002B0BDE8F08F0000002A08BF09040161F6
:1004D0007047000040F27000C2F2000000687047F0
:1004E00040F2000040F27001C2F20000C2F20001CE
:1004F00000780A68104408607047000080B542F236
:100500000000C4F20200016841F010010160032004
:1005100000F072F80F2000F005F800F027F8002036
:1005200080BD000070B540F20006C2F2000640F245
:1005300008013278C2F200014FF47A730968B3FB04
:10054000F2F20446B1FBF2F1084600F01FFB0F2C5B
:100550004FF0010508D838B94FF0FF30214600228E
:10056000002500F01DF87460284670BD82B041F28D
:100570001800C4F20200016841F001010160016845
:1005800001F0010101910199416841F08051416000
:10059000406800F080500090009802B07047000062
:1005A00010B54EF60C5CCEF2000CDCF80030C3F354
:1005B000022E8EF00704042C28BF0424BEF103038E
:1005C0004FF0FF3E0EFA04F438BF0023A1439940D8
:1005D0000EFA03F39A43114300F00F0200F1604357
:1005E0000901043A03F564436244002848BF02F15C
:1005F0000C03197010BD00004EF60C51CEF2000134
:100600000A684FF6FF031A4060F30A2242F0806046
:1006100040F0FD70086070472DE9F04381B000287C
:1006200000F0858042F20008C4F202080446D8F8BF
:1006300000000D4600F0070088420CD2D8F80000F8
:1006400020F007002843C8F80000D8F8000000F0A8
:100650000700A8426BD1206841F204098107C4F267
:10066000020917D5410705D5D9F8001041F4E0611A
:10067000C9F80010010705D5D9F8001041F4605100
:10068000C9F80010D9F80010A26821F0F001114358
:10069000C9F80010C00741D1D8F8000000F00700E9
:1006A000A8420CD9D8F8000020F007002843C8F869
:1006B0000000D8F8000000F00700A84237D12068F9
:1006C000410707D5D9F80010E26821F4E061114331
:1006D000C9F80010000708D5D9F80000216920F4F6
:1006E000605040EAC100C9F80000D9F8002002F0CB
:1006F0000C00082841F20020C0F27A0050D140F6E8
:100700008C73C2F38341C0F60003595CD2033BD41F
:1007100040F60010C0F23D00484341E06068022806
:100720000AD001282AD159F8041C890308D40120D1
:1007300001B0BDE8F08300BF59F8041C8901F6D56B
:10074000D9F8001021F003010843C9F80000FFF7B1
:10075000C1FE064641F28837D9F80000616800F012
:100760000C00B0EB810F97D0FFF7B4FE801BB842AE
:10077000F2D9032001B0BDE8F08300BF59F8041C92
:100780008907D4D5DCE700BFD9F8002040F67A739A
:10079000C2F34042C0F600039A5C4843B0FBF2F05B
:1007A000D9F8001040F67C72C1F30311C0F60002C4
:1007B000515C40F2080220FA01F140F20400C2F25A
:1007C00000000068C2F200021160FFF7ABFE0020DB
:1007D00001B0BDE8F08300002DE9F04182B00028AF
:1007E00068D00446007841F20006C007C4F2020651
:1007F00025D0706800F00C0004281BD0706800F051
:100800000C00082802D17068C00313D46068002867
:1008100000F06881B0F5A02F00F07C81B0F5803F3A
:1008200000F07C81306820F480303060306820F443
:10083000802076E13068800301D56068D0B32078ED
:10084000800718D5706810F00C0F07D0706800F0A2
:100850000C0008286ED17068C0036BD43068800724
:1008600002D52069012825D13068616920F0F8009F
:1008700040EAC1003060207800071FD4207840078C
:1008800032D4E56995B1706800F00C00082840F09A
:100890008F80012D0ED07068216A00F480328A4268
:1008A00008D1616A00F47010884203D1002002B0C0
:1008B000BDE8F081012002B0BDE8F081A069002808
:1008C00062D00020C4F242200121C0F88014FFF75A
:1008D00001FE0546706A800700F18C80FFF7FAFD83
:1008E000401B0228F6D92AE1F06910F0805808D19F
:1008F000F06940F08050F061F06900F080500090A5
:10090000009847F20007C4F200073868C00529D4F0
:10091000386840F480703860FFF7DCFD054600BFA2
:100920003868C0051ED4FFF7D5FD401B6428F7D9F1
:1009300005E100BF2069002840F20000C4F2422017
:1009400000F0828001210160FFF7C4FD054600BF71
:10095000306880073FF588AFFFF7BCFD401B0228D9
:10096000F6D9ECE0E068002800F08080052800F06F
:100970009780012800F09880306A20F001003062F2
:10098000306A20F0040092E00020C4F242200021EE
:10099000C0F88014FFF79EFD054600BF706A80070F
:1009A0007FF56CAFFFF796FD401B0228F6D9C6E035
:1009B0000027C4F2422700203866FFF78BFD022D86
:1009C00005460BD13068800140F1BE80FFF782FD03
:1009D000401B02284FF00300F4D968E7306880011B
:1009E0007FF564AFFFF776FD401B02284FF0030050
:1009F000F4D95CE740F20800C2F20000006844F657
:100A0000D351C1F26201A0FB0101480A019000BF6D
:100A100000BF0198411E002801913FF42FAF00BF95
:100A20000198411E002801913FF428AF00BF0198B2
:100A3000411E002801913FF421AF00BF0198411EE3
:100A400000280191E4D119E700210160FFF742FD80
:100A5000054600BF306880077FF50DAFFFF73AFD10
:100A6000401B02284FF00300F4D920E7306A20F041
:100A700001003062306A20F004003062FFF72AFD86
:100A8000054641F2883700BF306A800720D5FFF75E
:100A900021FD401BB8424FF00300F5D907E700BF26
:100AA000306A40F004003062306A40F00100306289
:100AB000FFF710FD054641F2883700BF306A800716
:100AC00006D4FFF707FD401BB842F7D937E000BF57
:100AD000B8F1000F7FF4D5AEF06920F08050F061DE
:100AE000CFE600BF306820F480303060306820F4FA
:100AF00080203060FFF7EEFC054600BF30688003C1
:100B00007FF59DAEFFF7E6FC401B64284FF0030025
:100B1000F4D9CCE6306840F480203060306840F48E
:100B200080303060FFF7D6FC054600BF3068800398
:100B30003FF585AEFFF7CEFC401B6428F6D90320B5
:100B400002B0BDE8F08100BF206AB0F5803F05D15A
:100B50007168A26821F40031114371607168626AA2
:100B600021F4741111430843706001203866FFF7C7
:100B7000B1FC0446306880013FF598AEFFF7AAFC4F
:100B8000001B02284FF00300F4D990E6411E00201C
:100B9000B0EB116F1CBF012070474EF21002CEF275
:100BA000000251604EF62351CEF20001F0230B708B
:100BB0000721906011607047FEE70000FEE700002B
:100BC000FEE700007047000070470000FFF788BC98
:100BD00070470000FEE7000090B0FFF78FFC06AC06
:100BE000201D2421FFF7F0FA0220069001200A9030
:100BF00010200B90002520460D95FFF7EDFD28B144
:100C0000EFF3108072B600BFFEE700BF0F20CDE902
:100C1000010501A80021CDE903550595FFF7FCFC6E
:100C200020B1EFF3108072B6FEE700BF41F218006A
:100C3000C4F20200016840F6000441F004010160C2
:100C40000068C4F2010400F00400069006982046F3
:100C50003F2100223F250026FFF736FC0120CDE989
:100C600007060220099006A920460695FFF728FBF3
:100C7000204607210022FFF727FC204638210022CA
:100C8000FFF722FCC820FFF707FB204608210122BE
:100C9000FFF71AFCC820FFF7FFFA204608210022C0
:100CA000FFF712FC204610210122FFF70DFCC8209F
:100CB000FFF7F2FA204608210122FFF705FCC820C1
:100CC000FFF7EAFA204618210022FFF7FDFB204635
:100CD00020210122FFF7F8FBC820FFF7DDFA2046AC
:100CE00008210122FFF7F0FBC820FFF7D5FA2046C4
:100CF00001210122FFF7E8FB204638210022FFF7FF
:100D0000E3FBC820FFF7C8FA204608210122FFF7BD
:100D1000DBFBC820FFF7C0FA204608210022FFF7BE
:100D2000D3FB204610210122FFF7CEFBC820FFF79E
:100D3000B3FA204608210122FFF7C6FBC820FFF7BF
:100D4000ABFA204618210022FFF7BEFB20462021E7
:100D50000122FFF7B9FBC820FFF79EFA20460821C1
:100D60000122FFF7B1FBC820FFF796FA20460121C8
:100D70000022FFF7A9FB204602210122FFF7A4FB76
:100D8000204638210022FFF79FFBC820FFF784FA96
:100D9000204608210122FFF797FBC820FFF77CFAC5
:100DA000204608210022FFF78FFB20461021012258
:100DB000FFF78AFBC820FFF76FFA204608210122BF
:100DC000FFF782FBC820FFF767FA204618210022B0
:100DD000FFF77AFB204620210122FFF775FBC82090
:100DE000FFF75AFA204608210122FFF76DFBC820C1
:100DF000FFF752FA204601210122FFF765FB20464A
:100E000038210022FFF760FBC820FFF745FA204693
:100E100008210122FFF758FBC820FFF73DFA2046C2
:100E200008210022FFF750FB204610210122FFF786
:100E30004BFBC820FFF730FA204608210122FFF7BC
:100E400043FBC820FFF728FA204618210022FFF7AD
:100E50003BFB204620210122FFF736FBC820FFF78D
:100E60001BFA204608210122FFF72EFBC820FFF7BE
:100E700013FA204603210022FFF726FB2046042117
:100E80000122FFF721FB204638210022FFF71CFB3F
:100E9000C820FFF701FA204608210122FFF714FBC2
:100EA000C820FFF7F9F9204608210022FFF70CFBC4
:100EB000204610210122FFF707FBC820FFF7ECF9BD
:100EC000204608210122FFF7FFFAC820FFF7E4F9C6
:100ED000204618210022FFF7F7FA204620210122A0
:100EE000FFF7F2FAC820FFF7D7F9204608210122C0
:100EF000FFF7EAFAC820FFF7CFF9204601210122C7
:100F0000FFF7E2FA204638210022FFF7DDFAC82079
:100F1000FFF7C2F9204608210122FFF7D5FAC820C1
:100F2000FFF7BAF9204608210022FFF7CDFA204644
:100F300010210122FFF7C8FAC820FFF7ADF92046BB
:100F400008210122FFF7C0FAC820FFF7A5F92046C3
:100F500018210022FFF7B8FA204620210122FFF7CE
:100F6000B3FAC820FFF798F9204608210122FFF7BD
:100F7000ABFAC820FFF790F97AE601020000000002
:100F8000000000000102030406070809020304052B
:100F9000060708090A0B0C0D0E0F1010C00F0008F1
:100FA000000000201000000028010008D00F0008F9
:100FB0001000002068060000440100080000000046
:100FC00001000000100000000024F40000000000F8
:04000005080000ED02
:00000001FF
